{
  "_format": "hh-sol-artifact-1",
  "contractName": "CharityPool",
  "sourceName": "contracts/CharityPool.sol",
  "abi": [
    {
      "inputs": [],
      "name": "Test",
      "outputs": [],
      "stateMutability": "view",
      "type": "function"
    }
  ],
  "bytecode": "0x608060405234801561001057600080fd5b50610224806100206000396000f3fe608060405234801561001057600080fd5b506004361061002b5760003560e01c8063a163a62414610030575b600080fd5b61003861003a565b005b6100786040518060400160405280600481526020017f546573740000000000000000000000000000000000000000000000000000000081525061007a565b565b6101108160405160240161008e91906101cc565b6040516020818303038152906040527f41304fac000000000000000000000000000000000000000000000000000000007bffffffffffffffffffffffffffffffffffffffffffffffffffffffff19166020820180517bffffffffffffffffffffffffffffffffffffffffffffffffffffffff8381831617835250505050610113565b50565b60008151905060006a636f6e736f6c652e6c6f679050602083016000808483855afa5050505050565b600081519050919050565b600082825260208201905092915050565b60005b8381101561017657808201518184015260208101905061015b565b60008484015250505050565b6000601f19601f8301169050919050565b600061019e8261013c565b6101a88185610147565b93506101b8818560208601610158565b6101c181610182565b840191505092915050565b600060208201905081810360008301526101e68184610193565b90509291505056fea2646970667358221220c9cac078284055d987716f3048db56a35335f887dabb9c384f716d93f19e570064736f6c63430008110033",
  "linkReferences": {},
  "deployedLinkReferences": {}
}